:1000000012C017C016C015C014C013C012C011C052
:1000100010C00FC00EC00DC00CC00BC00AC009C07C
:1000200008C007C006C011241FBECFEDCDBF02D04F
:1000300004C1E6CF2F923F924F925F926F927F92D0
:100040008F929F92AF92BF92CF92DF92EF92FF92E8
:100050000F931F93B89AC09A00E010E0B0E0A0E0C0
:10006000F0E0E0E070E0CC2460E050E040E030E020
:1000700020E090E02224FF2488248394702E760EC2
:10008000BB24B394701608F0BB24D12ED50EEE24F9
:10009000E394D11608F0EE24BD0CAA24A394BD1459
:1000A00008F0AA24EA28AB2EA40EDD24D394AB16C4
:1000B00008F0DD246E2C6A0CEE24E3946A1408F038
:1000C000EE24DE28AA2EA30EEE24E394AA1608F04E
:1000D000EE245D2C5A0CDD24D3945A1408F0DD2450
:1000E000ED28AF2EA20EDD24D394AF1608F0DD2448
:1000F0004E2C4A0CEE24E3944A1408F0EE24DE2839
:10010000AE2EA90EEE24E394AE1608F0EE24DA0C1F
:1001100099249394DA1408F09924E928972E920CE4
:1001200033243394971608F03324E90CAA24A394BB
:10013000E91408F0AA24A3289C2C9F0CA90C91F484
:10014000EE2081F4DD2071F4442061F4552051F457
:10015000662041F48B2D843128F48331D1F5872D2D
:100160008938B8F188B3882588BB85E0F82EF00E71
:1001700061E0F01608F060E0610F51E0611708F0EF
:1001800050E05B0F41E05B1708F040E04A0F31E0C0
:100190004A1708F030E03F0F21E03F1708F020E059
:1001A0002E0F91E02E1708F090E0970F81E097173F
:1001B00008F080E00F2D162FDA01F901792FC80E13
:1001C00060E050E040E030E020E090E02224FF24B6
:1001D00055CF562E539466246394561608F0662421
:1001E000650E61E0651608F060E0762E740E51E051
:1001F000741608F050E0952E930E41E0931608F027
:1002000040E0A42EA20E31E0A21608F030E0B32E9A
:10021000B90E21E0B91608F020E0D22ED20CEE245F
:10022000E394D21408F0EE24652D562D472D392D78
:0E0230002A2D9B2D2D2CFE0C21CFF894FFCFF4
:00000001FF
