:1000000012C01FC01EC01DC01CC01BC01AC019C01A
:1000100018C017C016C015C014C014C012C011C03B
:1000200010C00FC00EC011241FBECFEDCDBF10E019
:10003000A0E6B0E001C01D92A536B107E1F746D0B9
:10004000A1C0DECF1F920F920FB60F9211248F9393
:100050009F93AF93BF938091610090916200A091B4
:100060006300B09164000097A105B105A1F08091F3
:10007000610090916200A0916300B09164000197CB
:10008000A109B1098093610090936200A09363007D
:10009000B093640002C010926000BF91AF919F9135
:1000A0008F910F900FBE0F901F9018956093610075
:1000B00070936200809363009093640081E080936A
:1000C0006000809160008823E1F70895EF92FF922D
:1000D0000F931F93DF93CF93CDB7DEB7CC50CDBF37
:1000E00080EC898389EF8A8394EA9B8390EB9C83DD
:1000F00099E99D8392E99E8392E09F8398EF988788
:1001000090E8998790E99A8786BF80B7826080BF20
:1001100089B7816089BF83B7816083BF789487B3D3
:100120008FEF87BB81B3836081BB83E082BB898112
:1001300088BB30E020E0EE24E3948E010F5F1F4F78
:1001400082E0F82EE2BAF801E20FF11D808188BB4F
:10015000F2BAF801E30FF11D808188BB293021F448
:10016000393021F03F5F03C02F5F02C030E020E054
:1001700060ED77E080E090E02B873C8797DF2B8570
:080180003C85E0CFF894FFCFAD
:00000001FF
