:100000001AC032C031C030C02FC02EC02DC02CC08D
:100010002BC02AC029C028C027C027C025C024C0A3
:1000200023C022C021C0C0F9A4B0999202F88090E8
:1000300088E0B1C2B0B811241FBECFEDCDBF10E033
:10004000A0E6B0E0EEECF1E002C005900D92A23621
:10005000B107D9F710E0A2E6B0E001C01D92AA36C0
:10006000B107E1F77BD0B1C0CBCF1F920F920FB693
:100070000F9211242F933F938F939F93AF93BF932E
:10008000EF93FF938091660090916700A0916800C4
:10009000B09169000097A105B105A1F080916600BB
:1000A00090916700A0916800B09169000197A10943
:1000B000B1098093660090936700A0936800B093A5
:1000C000690002C010926500209164008091600078
:1000D00030E090E0880F991F2817390769F412BAA9
:1000E000E0916200F0E0EA5DFF4FE491E8BB81E05F
:1000F00082BB1092640015C09091640080916000F2
:10010000981751F412BAE0916300F0E0EA5DFF4FF6
:10011000E491E8BB82E082BB809164008F5F8093B2
:100120006400FF91EF91BF91AF919F918F913F91AB
:100130002F910F900FBE0F901F901895609366003F
:1001400070936700809368009093690081E08093CA
:100150006500809165008823E1F7089589EF86BFE7
:1001600080B7826080BF89B7816089BF83B78160B3
:1001700083BF78941092640087B38FEF87BB809120
:10018000260088BB81B3836081BB83E082BB809102
:100190006200893079F410926200809163008930A6
:1001A00019F4109263000BC0809163008F5F8093FD
:1001B000630005C0809162008F5F8093620060EDF4
:0E01C00077E080E090E0BADFE2CFF894FFCF66
:0201CE0014001B
:00000001FF
