:1000000012C01FC01EC01DC01CC01BC01AC019C01A
:1000100018C017C016C015C014C014C012C011C03B
:1000200010C00FC00EC011241FBECFEDCDBF10E019
:10003000A0E6B0E001C01D92A336B107E1F722D0DF
:1000400040C0DECF1F920F920FB60F9211248F93F4
:100050009F938091610090916200009751F0809190
:10006000610090916200019790936200809361001B
:1000700002C0109260009F918F910F900FBE0F9061
:100080001F90189589EF86BF80B7826080BF89B7BF
:10009000816089BF83B7816083BF7894B89AC09A22
:1000A00031E080E29EE428B3232728BB90936200CE
:1000B0008093610030936000209160002223E1F77B
:0600C000F2CFF894FFCF1F
:00000001FF
