:100000001AC032C031C030C02FC02EC02DC02CC08D
:100010002BC02AC029C028C027C027C025C024C0A3
:1000200023C022C021C0C0F9A4B0999202F88090E8
:100030008883C6A1868E11241FBECFEDCDBF10E0F0
:10004000A0E6B0E0ECEDF1E002C005900D92A23622
:10005000B107D9F710E0A2E6B0E001C01D92AA36C0
:10006000B107E1F752D0B8C0CBCF1F920F920FB6B5
:100070000F9211242F933F938F939F93EF93FF93AE
:1000800080916500882329F08091650081508093DC
:100090006500209164008091600030E090E0880F5E
:1000A000991F2817390779F482B392E0892782BB18
:1000B000E0916200F0E0EA5DFF4FE491E8BB909AC6
:1000C0001092640012C090916400809160009817B3
:1000D00061F482B391E0892782BBE0916300F0E094
:1000E000EA5DFF4FE491E8BB919A809164008F5FD5
:1000F00080936400FF91EF919F918F913F912F9199
:100100000F900FBE0F901F90189589EF86BF80B794
:10011000826080BF89B7816089BF83B7816083BFF8
:1001200078941092640087B38FEF87BBE6E2F0E02B
:10013000E491E8BB81B3836081BB82B3806582BBFD
:1001400082B3836082BB90E080E02FE033E0869B47
:1001500090E0869B1BC09923C9F49091620099237B
:1001600079F42093620090916300992319F420930D
:1001700063000BC09091630091509093630005C0A1
:100180009091620091509093620091E0849B80E096
:10019000849B1BC08823C9F4809162008F3079F45E
:1001A00010926200809163008F3019F41092630006
:1001B0000BC0809163008F5F8093630005C08091C6
:1001C00062008F5F8093620081E030936500409110
:0C01D00065004423E1F7BBCFF894FFCF9B
:0201DC0014000D
:00000001FF
