:1000000012C01FC01EC01DC01CC01BC01AC019C01A
:1000100018C017C016C015C014C014C012C011C03B
:1000200010C00FC00EC011241FBECFEDCDBF10E019
:10003000A0E6B0E001C01D92A536B107E1F746D0B9
:1000400087C0DECF1F920F920FB60F9211248F93AD
:100050009F93AF93BF938091610090916200A091B4
:100060006300B09164000097A105B105A1F08091F3
:10007000610090916200A0916300B09164000197CB
:10008000A109B1098093610090936200A09363007D
:10009000B093640002C010926000BF91AF919F9135
:1000A0008F910F900FBE0F901F9018956093610075
:1000B00070936200809363009093640081E080936A
:1000C0006000809160008823E1F708950F931F93EB
:1000D000DF93CF93CDB7DEB7CB50CDBF80EC898314
:1000E00089EF8A8394EA9B8390EB9C8399E99D83B3
:1000F00092E99E8392E09F8398EF988790E8998792
:1001000090E99A8786BF80B7826080BF89B7816097
:1001100089BF83B7816083BF789487B38FEF87BB34
:1001200098B388BB20E08E010F5F1F4FF801E20FEC
:10013000F11D808188BB293011F02F5F01C020E0C4
:1001400060ED77E080E090E02B87B0DF2B85EECF8D
:04015000F894FFCF51
:00000001FF
