:100000001AC032C031C030C02FC02EC02DC02CC08D
:100010002BC02AC029C028C027C031C025C024C099
:1000200023C022C021C0C0F9A4B0999202F88090E8
:100030008883C6A1868E11241FBECFEDCDBF10E0F0
:10004000A0E6B0E0EAEBF1E002C005900D92A23626
:10005000B107D9F710E0A2E6B0E001C01D92AA36C0
:10006000B107E1F75CD0A7C0CBCF539A5D9BFECF21
:100070008CB90895549A5F9BFECF8CB108951F925E
:100080000F920FB60F9211242F933F938F939F934C
:10009000EF93FF9380916500882329F0809165009C
:1000A000815080936500209164008091600030E071
:1000B00090E0880F991F2817390779F482B398E0E8
:1000C000892782BBE0916200F0E0EA5DFF4FE49196
:1000D000E8BB929A1092640012C0909164008091E3
:1000E0006000981761F482B394E0892782BBE091A5
:1000F0006300F0E0EA5DFF4FE491E8BB939A8091E2
:1001000064008F5F80936400FF91EF919F918F91C6
:100110003F912F910F900FBE0F901F9018950F9346
:100120001F9389EF86BF80B7826080BF89B78160E7
:1001300089BF83B7816083BF7894599A8CE089B96D
:100140001092640087B38FEF87BBE6E2F0E0E491A2
:10015000E8BB81B38C6081BB82B38C6082BB82B30D
:100160008C6082BB1AE003E083B1866083B982DFD2
:10017000809363008091630078DF80916300612F3A
:100180000ED0909362008091630009D08093630049
:1001900000936500809165008823E1F7E5CF991B06
:1001A00079E004C0991F961708F0961B881F7A956E
:0A01B000C9F780950895F894FFCF79
:0201BA0014002F
:00000001FF
