:100000001AC027C026C025C024C023C022C021C0DA
:1000100020C01FC01EC01DC01CC01CC01AC019C0FB
:1000200018C017C016C0C0F9A4B0999202F8809009
:100030008883C6A1868E11241FBECFEDCDBF10E0F0
:10004000A0E6B0E001C01D92A436B107E1F74AD0A6
:1000500097C0D6CF1F920F920FB60F9211248F9395
:100060009F93AF93BF938091600090916100A091A6
:100070006200B09163000097A105B10599F08091ED
:10008000600090916100A0916200B09163000197BF
:10009000A109B1098093600090936100A093620070
:1000A000B0936300BF91AF919F918F910F900FBE5E
:1000B0000F901F9018958FB980E48EB98BE18DB9A0
:1000C000769BFDCF08951F93182F862FF4DF812F85
:1000D000F2DF88B391E0892788BB88B3892788BB82
:1000E0001F910895EF92FF920F931F93DF93CF9389
:1000F00000D0CDB7DEB789EF86BF80B7826080BF02
:1001000089B7816089BF83B7816083BF789487B3E3
:10011000816C87BB30E020E080EDE82E87E0F82E90
:10012000012D112DE22FF0E0EA5DFF4F8491E32FC6
:10013000F0E0EA5DFF4F649129833A83C4DF2981AF
:100140003A812F3021F43F3021F03F5F03C02F5F11
:1001500002C030E020E0E0926000F0926100009385
:100160006200109363008091600090916100A09103
:100170006200B09163000097A105B105A1F7D2CF4D
:04018000F894FFCF21
:00000001FF
